{
  "contractName": "SimpleBank",
  "abi": [
    {
      "inputs": [],
      "stateMutability": "nonpayable",
      "type": "constructor"
    },
    {
      "anonymous": false,
      "inputs": [
        {
          "indexed": false,
          "internalType": "address",
          "name": "accountAddress",
          "type": "address"
        },
        {
          "indexed": false,
          "internalType": "uint256",
          "name": "amount",
          "type": "uint256"
        }
      ],
      "name": "LogDepositMade",
      "type": "event"
    },
    {
      "anonymous": false,
      "inputs": [
        {
          "indexed": false,
          "internalType": "address",
          "name": "accountAddress",
          "type": "address"
        }
      ],
      "name": "LogEnrolled",
      "type": "event"
    },
    {
      "anonymous": false,
      "inputs": [
        {
          "indexed": false,
          "internalType": "uint256",
          "name": "withdrawAmount",
          "type": "uint256"
        },
        {
          "indexed": false,
          "internalType": "address",
          "name": "accountAddress",
          "type": "address"
        },
        {
          "indexed": false,
          "internalType": "uint256",
          "name": "newBalance",
          "type": "uint256"
        }
      ],
      "name": "LogWithdrawal",
      "type": "event"
    },
    {
      "stateMutability": "payable",
      "type": "fallback",
      "payable": true
    },
    {
      "inputs": [
        {
          "internalType": "address",
          "name": "",
          "type": "address"
        }
      ],
      "name": "enrolled",
      "outputs": [
        {
          "internalType": "bool",
          "name": "",
          "type": "bool"
        }
      ],
      "stateMutability": "view",
      "type": "function",
      "constant": true
    },
    {
      "inputs": [],
      "name": "outputings",
      "outputs": [
        {
          "internalType": "uint256",
          "name": "",
          "type": "uint256"
        }
      ],
      "stateMutability": "view",
      "type": "function",
      "constant": true
    },
    {
      "inputs": [],
      "name": "owner",
      "outputs": [
        {
          "internalType": "address",
          "name": "",
          "type": "address"
        }
      ],
      "stateMutability": "view",
      "type": "function",
      "constant": true
    },
    {
      "inputs": [],
      "name": "getBalance",
      "outputs": [
        {
          "internalType": "uint256",
          "name": "",
          "type": "uint256"
        }
      ],
      "stateMutability": "view",
      "type": "function",
      "constant": true
    },
    {
      "inputs": [],
      "name": "enroll",
      "outputs": [
        {
          "internalType": "bool",
          "name": "",
          "type": "bool"
        }
      ],
      "stateMutability": "nonpayable",
      "type": "function"
    },
    {
      "inputs": [],
      "name": "deposit",
      "outputs": [
        {
          "internalType": "uint256",
          "name": "",
          "type": "uint256"
        }
      ],
      "stateMutability": "payable",
      "type": "function",
      "payable": true
    },
    {
      "inputs": [
        {
          "internalType": "uint256",
          "name": "withdrawAmount",
          "type": "uint256"
        }
      ],
      "name": "withdraw",
      "outputs": [
        {
          "internalType": "uint256",
          "name": "",
          "type": "uint256"
        }
      ],
      "stateMutability": "nonpayable",
      "type": "function"
    }
  ],
  "bytecode": "0x608060405234801561001057600080fd5b5033600260006101000a81548173ffffffffffffffffffffffffffffffffffffffff021916908373ffffffffffffffffffffffffffffffffffffffff1602179055506106aa806100616000396000f3fe6080604052600436106100745760003560e01c80636af254371161004e5780636af254371461015b5780638da5cb5b14610186578063d0e30db0146101c7578063e65f2a7e146101e557610075565b806310eb0e0e1461007a57806312065fe0146100e15780632e1a7d4d1461010c57610075565b5b600080fd5b34801561008657600080fd5b506100c96004803603602081101561009d57600080fd5b81019080803573ffffffffffffffffffffffffffffffffffffffff169060200190929190505050610212565b60405180821515815260200191505060405180910390f35b3480156100ed57600080fd5b506100f6610232565b6040518082815260200191505060405180910390f35b34801561011857600080fd5b506101456004803603602081101561012f57600080fd5b8101908080359060200190929190505050610278565b6040518082815260200191505060405180910390f35b34801561016757600080fd5b506101706103cf565b6040518082815260200191505060405180910390f35b34801561019257600080fd5b5061019b6103d5565b604051808273ffffffffffffffffffffffffffffffffffffffff16815260200191505060405180910390f35b6101cf6103fb565b6040518082815260200191505060405180910390f35b3480156101f157600080fd5b506101fa61057c565b60405180821515815260200191505060405180910390f35b60016020528060005260406000206000915054906101000a900460ff1681565b60008060003373ffffffffffffffffffffffffffffffffffffffff1673ffffffffffffffffffffffffffffffffffffffff16815260200190815260200160002054905090565b600081610283610232565b106103c557816000803373ffffffffffffffffffffffffffffffffffffffff1673ffffffffffffffffffffffffffffffffffffffff168152602001908152602001600020600082825403925050819055503373ffffffffffffffffffffffffffffffffffffffff166108fc839081150290604051600060405180830381858888f1935050505015801561031a573d6000803e3d6000fd5b507ff14cd1bb289d45f28f1d192add66893331fa3b3fa7a2a9dd1cc7e076dd817e1982336000803373ffffffffffffffffffffffffffffffffffffffff1673ffffffffffffffffffffffffffffffffffffffff16815260200190815260200160002054604051808481526020018373ffffffffffffffffffffffffffffffffffffffff168152602001828152602001935050505060405180910390a16103be610232565b90506103ca565b600080fd5b919050565b60035481565b600260009054906101000a900473ffffffffffffffffffffffffffffffffffffffff1681565b6000600160003373ffffffffffffffffffffffffffffffffffffffff1673ffffffffffffffffffffffffffffffffffffffff16815260200190815260200160002060009054906101000a900460ff161561057457346000803373ffffffffffffffffffffffffffffffffffffffff1673ffffffffffffffffffffffffffffffffffffffff168152602001908152602001600020600082825401925050819055507fa8126f7572bb1fdeae5b5aa9ec126438b91f658a07873f009d041ae690f3a193336000803373ffffffffffffffffffffffffffffffffffffffff1673ffffffffffffffffffffffffffffffffffffffff16815260200190815260200160002054604051808373ffffffffffffffffffffffffffffffffffffffff1681526020018281526020019250505060405180910390a16000803373ffffffffffffffffffffffffffffffffffffffff1673ffffffffffffffffffffffffffffffffffffffff168152602001908152602001600020549050610579565b600080fd5b90565b600060018060003373ffffffffffffffffffffffffffffffffffffffff1673ffffffffffffffffffffffffffffffffffffffff16815260200190815260200160002060006101000a81548160ff0219169083151502179055507f990c442e6adb818b8fa7db3cf1023decd07f7b66e5306928c7ed527d974192bb33604051808273ffffffffffffffffffffffffffffffffffffffff16815260200191505060405180910390a1600160003373ffffffffffffffffffffffffffffffffffffffff1673ffffffffffffffffffffffffffffffffffffffff16815260200190815260200160002060009054906101000a900460ff1690509056fea2646970667358221220308d2285f08afe48c466500e8f14428ac90b18e4f393391a9308c40c6bf9ab4f64736f6c634300060c0033",
  "immutableReferences": {},
  "source": "pragma solidity ^0.6.12;\n\ncontract SimpleBank {\n\n    //\n    // These are my state variables\n    //\n    \n    /* Fill in the keyword. Hint: We want to protect our users balance from other contracts*/\n    mapping (address => uint) private balances;\n    \n    /* Fill in the keyword. We want to create a getter function and allow contracts to be able to see if a user is enrolled.  */\n    mapping (address => bool) public enrolled;\n\n    /* Let's make sure everyone knows who owns the bank. Use the appropriate keyword for this*/\n    address public owner;\n    \n    //console.log\n    uint public outputings;\n    \n    //\n    // Events - publicize actions to external listeners\n    //\n    \n    /* Add an argument for this event, an accountAddress */\n    event LogEnrolled(address accountAddress);\n\n    /* Add 2 arguments for this event, an accountAddress and an amount */\n    event LogDepositMade(address accountAddress, uint amount);\n\n    /* Create an event called LogWithdrawal */\n    /* Add 3 arguments for this event, an accountAddress, withdrawAmount and a newBalance */\n    \n   event LogWithdrawal(uint withdrawAmount, address accountAddress, uint newBalance); \n   \n   \n\n    //\n    // Functions\n    //\n\n    /* Use the appropriate global variable to get the sender of the transaction */\n    constructor() public {\n        owner = msg.sender;\n    }\n\n    // Fallback function - Called if other functions don't match call or\n    // sent ether without data\n    // Typically, called when invalid data is sent\n    // Added so ether sent to this contract is reverted if the contract fails\n    // otherwise, the sender's money is transferred to contract\n    fallback() external payable {\n        revert();\n    }\n\n    /// Notice Get balance\n    /// Return The balance of the user\n    // A SPECIAL KEYWORD prevents function from editing state variables;\n    // allows function to run locally/off blockchain\n    function getBalance() view public returns (uint) {\n        /* Get the balance of the sender of this transaction */\n        return balances[msg.sender];\n    }\n\n    /// notice Enroll a customer with the bank\n    /// return The users enrolled status\n    // Emit the appropriate event\n    function enroll() public returns (bool) {\n\n        enrolled[msg.sender] = true;\n        emit LogEnrolled(msg.sender);\n        return enrolled[msg.sender];\n       \n        \n    \n    }\n\n    /// @notice Deposit ether into bank\n    /// @return The balance of the user after the deposit is made\n    // Add the appropriate keyword so that this function can receive ether\n    // Use the appropriate global variables to get the transaction sender and value\n    // Emit the appropriate event    \n    // Users should be enrolled before they can make deposits\n     function deposit() public payable returns (uint) {\n        /* Add the amount to the user's balance, call the event associated with a deposit,\n          then return the balance of the user */\n           if(enrolled[msg.sender]) {      \n        balances[msg.sender] += msg.value;\n        emit LogDepositMade(msg.sender, balances[msg.sender]); \n          return balances[msg.sender];\n          } else {\n              revert();\n          }\n          \n    }\n\n    /// @notice Withdraw ether from bank\n    /// @dev This does not return any excess ether sent to it\n    /// @param withdrawAmount amount you want to withdraw\n    /// @return The balance remaining for the user\n    // Emit the appropriate event    \n    function withdraw(uint withdrawAmount) public returns (uint) {\n        /* If the sender's balance is at least the amount they want to withdraw,\n           Subtract the amount from the sender's balance, and try to send that amount of ether\n           to the user attempting to withdraw. \n           return the user's balance.*/\n\n           if(getBalance() >= withdrawAmount) {\n            balances[msg.sender] -= withdrawAmount;\n            msg.sender.transfer(withdrawAmount);\n            emit LogWithdrawal(withdrawAmount , msg.sender, balances[msg.sender]);\n            return getBalance();\n           } else {\n               revert();\n           }\n        \n\n    }\n\n}",
  "sourcePath": "/home/adamp/Documents/ConsensysBootcamp/simple-bank-exercise-adsp16/contracts/SimpleBank.sol",
  "compiler": {
    "name": "solc",
    "version": "0.6.12+commit.27d51765.Emscripten.clang"
  },
  "schemaVersion": "3.3.0",
  "updatedAt": "2020-10-15T21:27:18.111Z",
  "networkType": "ethereum",
  "devdoc": {
    "kind": "dev",
    "methods": {
      "deposit()": {
        "returns": {
          "_0": "The balance of the user after the deposit is made"
        }
      },
      "withdraw(uint256)": {
        "details": "This does not return any excess ether sent to it",
        "params": {
          "withdrawAmount": "amount you want to withdraw"
        },
        "returns": {
          "_0": "The balance remaining for the user"
        }
      }
    },
    "version": 1
  },
  "userdoc": {
    "kind": "user",
    "methods": {
      "deposit()": {
        "notice": "Deposit ether into bank"
      },
      "enroll()": {
        "notice": "notice Enroll a customer with the bank return The users enrolled status"
      },
      "getBalance()": {
        "notice": "Notice Get balance Return The balance of the user"
      },
      "withdraw(uint256)": {
        "notice": "Withdraw ether from bank"
      }
    },
    "version": 1
  }
}